{
  "contractName": "CallerContract",
  "abi": [
    {
      "anonymous": false,
      "inputs": [
        {
          "indexed": true,
          "internalType": "address",
          "name": "previousOwner",
          "type": "address"
        },
        {
          "indexed": true,
          "internalType": "address",
          "name": "newOwner",
          "type": "address"
        }
      ],
      "name": "OwnershipTransferred",
      "type": "event"
    },
    {
      "anonymous": false,
      "inputs": [
        {
          "indexed": false,
          "internalType": "uint256",
          "name": "ethPrice",
          "type": "uint256"
        },
        {
          "indexed": false,
          "internalType": "uint256",
          "name": "id",
          "type": "uint256"
        }
      ],
      "name": "PriceUpdatedEvent",
      "type": "event"
    },
    {
      "anonymous": false,
      "inputs": [
        {
          "indexed": false,
          "internalType": "uint256",
          "name": "id",
          "type": "uint256"
        }
      ],
      "name": "ReceivedNewRequestIdEvent",
      "type": "event"
    },
    {
      "anonymous": false,
      "inputs": [
        {
          "indexed": false,
          "internalType": "address",
          "name": "oracleAddress",
          "type": "address"
        }
      ],
      "name": "newOracleAddressEvent",
      "type": "event"
    },
    {
      "inputs": [],
      "name": "owner",
      "outputs": [
        {
          "internalType": "address",
          "name": "",
          "type": "address"
        }
      ],
      "stateMutability": "view",
      "type": "function"
    },
    {
      "inputs": [],
      "name": "renounceOwnership",
      "outputs": [],
      "stateMutability": "nonpayable",
      "type": "function"
    },
    {
      "inputs": [
        {
          "internalType": "address",
          "name": "newOwner",
          "type": "address"
        }
      ],
      "name": "transferOwnership",
      "outputs": [],
      "stateMutability": "nonpayable",
      "type": "function"
    },
    {
      "inputs": [
        {
          "internalType": "address",
          "name": "_oracleInstanceAddress",
          "type": "address"
        }
      ],
      "name": "setOracleInstanceAddress",
      "outputs": [],
      "stateMutability": "nonpayable",
      "type": "function"
    },
    {
      "inputs": [],
      "name": "updateEthPrice",
      "outputs": [],
      "stateMutability": "nonpayable",
      "type": "function"
    },
    {
      "inputs": [
        {
          "internalType": "uint256",
          "name": "_ethPrice",
          "type": "uint256"
        },
        {
          "internalType": "uint256",
          "name": "_id",
          "type": "uint256"
        }
      ],
      "name": "callback",
      "outputs": [],
      "stateMutability": "nonpayable",
      "type": "function"
    }
  ],
  "bytecode": "0x608060405234801561001057600080fd5b5060006100216100c460201b60201c565b9050806000806101000a81548173ffffffffffffffffffffffffffffffffffffffff021916908373ffffffffffffffffffffffffffffffffffffffff1602179055508073ffffffffffffffffffffffffffffffffffffffff16600073ffffffffffffffffffffffffffffffffffffffff167f8be0079c531659141344cd1fd0a4f28419497f9722a3daafe3b4186f6b6457e060405160405180910390a3506100cc565b600033905090565b610bcd806100db6000396000f3fe608060405234801561001057600080fd5b50600436106100625760003560e01c806323c7e4a214610067578063715018a6146100715780638da5cb5b1461007b578063b5d73ba414610099578063e9e17a9e146100b5578063f2fde38b146100d1575b600080fd5b61006f6100ed565b005b6100796101f9565b005b610083610333565b6040516100909190610a3d565b60405180910390f35b6100b360048036038101906100ae9190610871565b61035c565b005b6100cf60048036038101906100ca919061081f565b6104b3565b005b6100eb60048036038101906100e6919061081f565b61062f565b005b6000600260009054906101000a900473ffffffffffffffffffffffffffffffffffffffff1673ffffffffffffffffffffffffffffffffffffffff166330c0b9ec6040518163ffffffff1660e01b8152600401602060405180830381600087803b15801561015957600080fd5b505af115801561016d573d6000803e3d6000fd5b505050506040513d601f19601f820116820180604052508101906101919190610848565b905060016004600083815260200190815260200160002060006101000a81548160ff0219169083151502179055507f3ed150819af981e387450beb90ec379b8b322150dbb299d492b108c59a623e4b816040516101ee9190610ad8565b60405180910390a150565b6102016107d8565b73ffffffffffffffffffffffffffffffffffffffff1661021f610333565b73ffffffffffffffffffffffffffffffffffffffff1614610275576040517f08c379a000000000000000000000000000000000000000000000000000000000815260040161026c90610a78565b60405180910390fd5b600073ffffffffffffffffffffffffffffffffffffffff1660008054906101000a900473ffffffffffffffffffffffffffffffffffffffff1673ffffffffffffffffffffffffffffffffffffffff167f8be0079c531659141344cd1fd0a4f28419497f9722a3daafe3b4186f6b6457e060405160405180910390a360008060006101000a81548173ffffffffffffffffffffffffffffffffffffffff021916908373ffffffffffffffffffffffffffffffffffffffff160217905550565b60008060009054906101000a900473ffffffffffffffffffffffffffffffffffffffff16905090565b600360009054906101000a900473ffffffffffffffffffffffffffffffffffffffff1673ffffffffffffffffffffffffffffffffffffffff163373ffffffffffffffffffffffffffffffffffffffff16146103ec576040517f08c379a00000000000000000000000000000000000000000000000000000000081526004016103e390610a98565b60405180910390fd5b6004600082815260200190815260200160002060009054906101000a900460ff1661044c576040517f08c379a000000000000000000000000000000000000000000000000000000000815260040161044390610ab8565b60405180910390fd5b816001819055506004600082815260200190815260200160002060006101000a81549060ff02191690557f6b69e4f2aedf7e65a79ecaf16e8869b2b99c87e341f2c51286bfd4a7fc3b996982826040516104a7929190610af3565b60405180910390a15050565b6104bb6107d8565b73ffffffffffffffffffffffffffffffffffffffff166104d9610333565b73ffffffffffffffffffffffffffffffffffffffff161461052f576040517f08c379a000000000000000000000000000000000000000000000000000000000815260040161052690610a78565b60405180910390fd5b80600360006101000a81548173ffffffffffffffffffffffffffffffffffffffff021916908373ffffffffffffffffffffffffffffffffffffffff160217905550600360009054906101000a900473ffffffffffffffffffffffffffffffffffffffff16600260006101000a81548173ffffffffffffffffffffffffffffffffffffffff021916908373ffffffffffffffffffffffffffffffffffffffff1602179055507f441e3b056b114797955165bd03bb8393fc1658a713f09225de4745a8d068bf7d600360009054906101000a900473ffffffffffffffffffffffffffffffffffffffff166040516106249190610a3d565b60405180910390a150565b6106376107d8565b73ffffffffffffffffffffffffffffffffffffffff16610655610333565b73ffffffffffffffffffffffffffffffffffffffff16146106ab576040517f08c379a00000000000000000000000000000000000000000000000000000000081526004016106a290610a78565b60405180910390fd5b600073ffffffffffffffffffffffffffffffffffffffff168173ffffffffffffffffffffffffffffffffffffffff16141561071b576040517f08c379a000000000000000000000000000000000000000000000000000000000815260040161071290610a58565b60405180910390fd5b8073ffffffffffffffffffffffffffffffffffffffff1660008054906101000a900473ffffffffffffffffffffffffffffffffffffffff1673ffffffffffffffffffffffffffffffffffffffff167f8be0079c531659141344cd1fd0a4f28419497f9722a3daafe3b4186f6b6457e060405160405180910390a3806000806101000a81548173ffffffffffffffffffffffffffffffffffffffff021916908373ffffffffffffffffffffffffffffffffffffffff16021790555050565b600033905090565b6000813590506107ef81610b69565b92915050565b60008135905061080481610b80565b92915050565b60008151905061081981610b80565b92915050565b60006020828403121561083157600080fd5b600061083f848285016107e0565b91505092915050565b60006020828403121561085a57600080fd5b60006108688482850161080a565b91505092915050565b6000806040838503121561088457600080fd5b6000610892858286016107f5565b92505060206108a3858286016107f5565b9150509250929050565b6108b681610b2d565b82525050565b60006108c9602683610b1c565b91507f4f776e61626c653a206e6577206f776e657220697320746865207a65726f206160008301527f64647265737300000000000000000000000000000000000000000000000000006020830152604082019050919050565b600061092f602083610b1c565b91507f4f776e61626c653a2063616c6c6572206973206e6f7420746865206f776e65726000830152602082019050919050565b600061096f602d83610b1c565b91507f596f7520617265206e6f7420617574686f72697a656420746f2063616c6c207460008301527f6869732066756e6374696f6e2e000000000000000000000000000000000000006020830152604082019050919050565b60006109d5602783610b1c565b91507f546869732072657175657374206973206e6f7420696e206d792070656e64696e60008301527f67206c6973742e000000000000000000000000000000000000000000000000006020830152604082019050919050565b610a3781610b5f565b82525050565b6000602082019050610a5260008301846108ad565b92915050565b60006020820190508181036000830152610a71816108bc565b9050919050565b60006020820190508181036000830152610a9181610922565b9050919050565b60006020820190508181036000830152610ab181610962565b9050919050565b60006020820190508181036000830152610ad1816109c8565b9050919050565b6000602082019050610aed6000830184610a2e565b92915050565b6000604082019050610b086000830185610a2e565b610b156020830184610a2e565b9392505050565b600082825260208201905092915050565b6000610b3882610b3f565b9050919050565b600073ffffffffffffffffffffffffffffffffffffffff82169050919050565b6000819050919050565b610b7281610b2d565b8114610b7d57600080fd5b50565b610b8981610b5f565b8114610b9457600080fd5b5056fea2646970667358221220753f8b252b88f5583b834d990b5b47c73e990242b3cbf89707f7a7be658d548564736f6c63430008000033",
  "immutableReferences": {},
  "source": "pragma solidity 0.8.0;\r\nimport \"./EthPriceOracleInterface.sol\";\r\nimport \"../../node_modules/openzeppelin-solidity/contracts/access/Ownable.sol\";\r\ncontract CallerContract is Ownable {\r\n    uint256 private ethPrice;\r\n    EthPriceOracleInterface private oracleInstance;\r\n    address private oracleAddress;\r\n    mapping(uint256=>bool) myRequests;\r\n    event newOracleAddressEvent(address oracleAddress);\r\n    event ReceivedNewRequestIdEvent(uint256 id);\r\n    event PriceUpdatedEvent(uint256 ethPrice, uint256 id);\r\n    function setOracleInstanceAddress (address _oracleInstanceAddress) public onlyOwner {\r\n      oracleAddress = _oracleInstanceAddress;\r\n      oracleInstance = EthPriceOracleInterface(oracleAddress);\r\n      emit newOracleAddressEvent(oracleAddress);\r\n    }\r\n    function updateEthPrice() public {\r\n      uint256 id = oracleInstance.getLatestEthPrice();\r\n      myRequests[id] = true;\r\n      emit ReceivedNewRequestIdEvent(id);\r\n    }\r\n    function callback(uint256 _ethPrice, uint256 _id) public onlyOracle {\r\n      require(myRequests[_id], \"This request is not in my pending list.\");\r\n      ethPrice = _ethPrice;\r\n      delete myRequests[_id];\r\n      emit PriceUpdatedEvent(_ethPrice, _id);\r\n    }\r\n    modifier onlyOracle() {\r\n      require(msg.sender == oracleAddress, \"You are not authorized to call this function.\");\r\n      _;\r\n    }\r\n}\r\n",
  "sourcePath": "D:/EthPriceOracle/caller/contracts/CallerContract.sol",
  "compiler": {
    "name": "solc",
    "version": "0.8.0+commit.c7dfd78e.Emscripten.clang"
  },
  "schemaVersion": "3.4.1",
  "updatedAt": "2021-06-07T01:06:57.295Z",
  "devdoc": {
    "kind": "dev",
    "methods": {
      "owner()": {
        "details": "Returns the address of the current owner."
      },
      "renounceOwnership()": {
        "details": "Leaves the contract without owner. It will not be possible to call `onlyOwner` functions anymore. Can only be called by the current owner. NOTE: Renouncing ownership will leave the contract without an owner, thereby removing any functionality that is only available to the owner."
      },
      "transferOwnership(address)": {
        "details": "Transfers ownership of the contract to a new account (`newOwner`). Can only be called by the current owner."
      }
    },
    "version": 1
  },
  "userdoc": {
    "kind": "user",
    "methods": {},
    "version": 1
  }
}