{
  "contractName": "EthPriceOracle",
  "abi": [
    {
      "anonymous": false,
      "inputs": [
        {
          "indexed": false,
          "internalType": "address",
          "name": "callerAddress",
          "type": "address"
        },
        {
          "indexed": false,
          "internalType": "uint256",
          "name": "id",
          "type": "uint256"
        }
      ],
      "name": "GetLatestEthPriceEvent",
      "type": "event"
    },
    {
      "anonymous": false,
      "inputs": [
        {
          "indexed": true,
          "internalType": "address",
          "name": "previousOwner",
          "type": "address"
        },
        {
          "indexed": true,
          "internalType": "address",
          "name": "newOwner",
          "type": "address"
        }
      ],
      "name": "OwnershipTransferred",
      "type": "event"
    },
    {
      "anonymous": false,
      "inputs": [
        {
          "indexed": false,
          "internalType": "uint256",
          "name": "ethPrice",
          "type": "uint256"
        },
        {
          "indexed": false,
          "internalType": "address",
          "name": "callerAddress",
          "type": "address"
        }
      ],
      "name": "SetLatestEthPriceEvent",
      "type": "event"
    },
    {
      "inputs": [],
      "name": "owner",
      "outputs": [
        {
          "internalType": "address",
          "name": "",
          "type": "address"
        }
      ],
      "stateMutability": "view",
      "type": "function"
    },
    {
      "inputs": [],
      "name": "renounceOwnership",
      "outputs": [],
      "stateMutability": "nonpayable",
      "type": "function"
    },
    {
      "inputs": [
        {
          "internalType": "address",
          "name": "newOwner",
          "type": "address"
        }
      ],
      "name": "transferOwnership",
      "outputs": [],
      "stateMutability": "nonpayable",
      "type": "function"
    },
    {
      "inputs": [],
      "name": "getLatestEthPrice",
      "outputs": [
        {
          "internalType": "uint256",
          "name": "",
          "type": "uint256"
        }
      ],
      "stateMutability": "nonpayable",
      "type": "function"
    },
    {
      "inputs": [
        {
          "internalType": "uint256",
          "name": "_ethPrice",
          "type": "uint256"
        },
        {
          "internalType": "address",
          "name": "_callerAddress",
          "type": "address"
        },
        {
          "internalType": "uint256",
          "name": "_id",
          "type": "uint256"
        }
      ],
      "name": "setLatestEthPrice",
      "outputs": [],
      "stateMutability": "nonpayable",
      "type": "function"
    }
  ],
  "bytecode": "0x608060405260006001556103e860025534801561001b57600080fd5b50600061002c6100cf60201b60201c565b9050806000806101000a81548173ffffffffffffffffffffffffffffffffffffffff021916908373ffffffffffffffffffffffffffffffffffffffff1602179055508073ffffffffffffffffffffffffffffffffffffffff16600073ffffffffffffffffffffffffffffffffffffffff167f8be0079c531659141344cd1fd0a4f28419497f9722a3daafe3b4186f6b6457e060405160405180910390a3506100d7565b600033905090565b610b71806100e66000396000f3fe608060405234801561001057600080fd5b50600436106100575760003560e01c806330c0b9ec1461005c578063715018a61461007a5780638da5cb5b14610084578063cf642f1f146100a2578063f2fde38b146100be575b600080fd5b6100646100da565b6040516100719190610940565b60405180910390f35b6100826101a1565b005b61008c6102db565b604051610099919061089c565b60405180910390f35b6100bc60048036038101906100b791906106b8565b610304565b005b6100d860048036038101906100d3919061068f565b6104b4565b005b6000600160008154809291906100ef906109fa565b9190505550600060025442336001546040516020016101109392919061085f565b6040516020818303038152906040528051906020012060001c6101339190610a71565b905060016003600083815260200190815260200160002060006101000a81548160ff0219169083151502179055507f3d50a0c24e97813f35595d2f1f37dbf421d5e97f37abd4e222853e9b9c82c8d533826040516101929291906108b7565b60405180910390a18091505090565b6101a961065d565b73ffffffffffffffffffffffffffffffffffffffff166101c76102db565b73ffffffffffffffffffffffffffffffffffffffff161461021d576040517f08c379a000000000000000000000000000000000000000000000000000000000815260040161021490610900565b60405180910390fd5b600073ffffffffffffffffffffffffffffffffffffffff1660008054906101000a900473ffffffffffffffffffffffffffffffffffffffff1673ffffffffffffffffffffffffffffffffffffffff167f8be0079c531659141344cd1fd0a4f28419497f9722a3daafe3b4186f6b6457e060405160405180910390a360008060006101000a81548173ffffffffffffffffffffffffffffffffffffffff021916908373ffffffffffffffffffffffffffffffffffffffff160217905550565b60008060009054906101000a900473ffffffffffffffffffffffffffffffffffffffff16905090565b61030c61065d565b73ffffffffffffffffffffffffffffffffffffffff1661032a6102db565b73ffffffffffffffffffffffffffffffffffffffff1614610380576040517f08c379a000000000000000000000000000000000000000000000000000000000815260040161037790610900565b60405180910390fd5b6003600082815260200190815260200160002060009054906101000a900460ff166103e0576040517f08c379a00000000000000000000000000000000000000000000000000000000081526004016103d790610920565b60405180910390fd5b6003600082815260200190815260200160002060006101000a81549060ff021916905560008290508073ffffffffffffffffffffffffffffffffffffffff1663b5d73ba485846040518363ffffffff1660e01b8152600401610443929190610984565b600060405180830381600087803b15801561045d57600080fd5b505af1158015610471573d6000803e3d6000fd5b505050507f91b860381268a473101de3379abbb70abf7ea6c9d1735cf58b9816479ff3b72784846040516104a692919061095b565b60405180910390a150505050565b6104bc61065d565b73ffffffffffffffffffffffffffffffffffffffff166104da6102db565b73ffffffffffffffffffffffffffffffffffffffff1614610530576040517f08c379a000000000000000000000000000000000000000000000000000000000815260040161052790610900565b60405180910390fd5b600073ffffffffffffffffffffffffffffffffffffffff168173ffffffffffffffffffffffffffffffffffffffff1614156105a0576040517f08c379a0000000000000000000000000000000000000000000000000000000008152600401610597906108e0565b60405180910390fd5b8073ffffffffffffffffffffffffffffffffffffffff1660008054906101000a900473ffffffffffffffffffffffffffffffffffffffff1673ffffffffffffffffffffffffffffffffffffffff167f8be0079c531659141344cd1fd0a4f28419497f9722a3daafe3b4186f6b6457e060405160405180910390a3806000806101000a81548173ffffffffffffffffffffffffffffffffffffffff021916908373ffffffffffffffffffffffffffffffffffffffff16021790555050565b600033905090565b60008135905061067481610b0d565b92915050565b60008135905061068981610b24565b92915050565b6000602082840312156106a157600080fd5b60006106af84828501610665565b91505092915050565b6000806000606084860312156106cd57600080fd5b60006106db8682870161067a565b93505060206106ec86828701610665565b92505060406106fd8682870161067a565b9150509250925092565b610710816109be565b82525050565b610727610722826109be565b610a43565b82525050565b600061073a6026836109ad565b91507f4f776e61626c653a206e6577206f776e657220697320746865207a65726f206160008301527f64647265737300000000000000000000000000000000000000000000000000006020830152604082019050919050565b60006107a06020836109ad565b91507f4f776e61626c653a2063616c6c6572206973206e6f7420746865206f776e65726000830152602082019050919050565b60006107e06027836109ad565b91507f546869732072657175657374206973206e6f7420696e206d792070656e64696e60008301527f67206c6973742e000000000000000000000000000000000000000000000000006020830152604082019050919050565b610842816109f0565b82525050565b610859610854826109f0565b610a67565b82525050565b600061086b8286610848565b60208201915061087b8285610716565b60148201915061088b8284610848565b602082019150819050949350505050565b60006020820190506108b16000830184610707565b92915050565b60006040820190506108cc6000830185610707565b6108d96020830184610839565b9392505050565b600060208201905081810360008301526108f98161072d565b9050919050565b6000602082019050818103600083015261091981610793565b9050919050565b60006020820190508181036000830152610939816107d3565b9050919050565b60006020820190506109556000830184610839565b92915050565b60006040820190506109706000830185610839565b61097d6020830184610707565b9392505050565b60006040820190506109996000830185610839565b6109a66020830184610839565b9392505050565b600082825260208201905092915050565b60006109c9826109d0565b9050919050565b600073ffffffffffffffffffffffffffffffffffffffff82169050919050565b6000819050919050565b6000610a05826109f0565b91507fffffffffffffffffffffffffffffffffffffffffffffffffffffffffffffffff821415610a3857610a37610aa2565b5b600182019050919050565b6000610a4e82610a55565b9050919050565b6000610a6082610b00565b9050919050565b6000819050919050565b6000610a7c826109f0565b9150610a87836109f0565b925082610a9757610a96610ad1565b5b828206905092915050565b7f4e487b7100000000000000000000000000000000000000000000000000000000600052601160045260246000fd5b7f4e487b7100000000000000000000000000000000000000000000000000000000600052601260045260246000fd5b60008160601b9050919050565b610b16816109be565b8114610b2157600080fd5b50565b610b2d816109f0565b8114610b3857600080fd5b5056fea26469706673582212203b0a935ecebf29735c58c0422966f14384ab4e49f82a11dee2d49dfc6dc85cda64736f6c63430008000033",
  "immutableReferences": {},
  "source": "pragma solidity 0.8.0;\r\nimport \"../../node_modules/openzeppelin-solidity/contracts/access/Ownable.sol\";\r\nimport \"./CallerContractInterface.sol\";\r\ncontract EthPriceOracle is Ownable {\r\n  uint private randNonce = 0;\r\n  uint private modulus = 1000;\r\n  mapping(uint256=>bool) pendingRequests;\r\n  event GetLatestEthPriceEvent(address callerAddress, uint id);\r\n  event SetLatestEthPriceEvent(uint256 ethPrice, address callerAddress);\r\n  function getLatestEthPrice() public returns (uint256) {\r\n    randNonce++;\r\n    uint id = uint(keccak256(abi.encodePacked(block.timestamp, msg.sender, randNonce))) % modulus;\r\n    pendingRequests[id] = true;\r\n    emit GetLatestEthPriceEvent(msg.sender, id);\r\n    return id;\r\n  }\r\n  function setLatestEthPrice(uint256 _ethPrice, address _callerAddress, uint256 _id) public onlyOwner {\r\n    require(pendingRequests[_id], \"This request is not in my pending list.\");\r\n    delete pendingRequests[_id];\r\n    CallerContracInterface callerContractInstance;\r\n    callerContractInstance = CallerContracInterface(_callerAddress);\r\n    callerContractInstance.callback(_ethPrice, _id);\r\n    emit SetLatestEthPriceEvent(_ethPrice, _callerAddress);\r\n  }\r\n}\r\n",
  "sourcePath": "D:/EthPriceOracle/oracle/contracts/EthPriceOracle.sol",
  "compiler": {
    "name": "solc",
    "version": "0.8.0+commit.c7dfd78e.Emscripten.clang"
  },
  "schemaVersion": "3.4.1",
  "updatedAt": "2021-06-07T01:11:43.905Z",
  "devdoc": {
    "kind": "dev",
    "methods": {
      "owner()": {
        "details": "Returns the address of the current owner."
      },
      "renounceOwnership()": {
        "details": "Leaves the contract without owner. It will not be possible to call `onlyOwner` functions anymore. Can only be called by the current owner. NOTE: Renouncing ownership will leave the contract without an owner, thereby removing any functionality that is only available to the owner."
      },
      "transferOwnership(address)": {
        "details": "Transfers ownership of the contract to a new account (`newOwner`). Can only be called by the current owner."
      }
    },
    "version": 1
  },
  "userdoc": {
    "kind": "user",
    "methods": {},
    "version": 1
  }
}